{
	"data": {
		"bytecode": {
			"linkReferences": {},
			"object": "608060405234801561001057600080fd5b50610161806100206000396000f3fe608060405234801561001057600080fd5b506004361061002b5760003560e01c8063cbedbf5a14610030575b600080fd5b61003861003a565b005b7f473e81062e4ff21e1cd2c2ceaa6b79bd5885f00eb22d9a844ce9fd9685f22ac76103e860405161006b91906100a7565b60405180910390a1565b61007e816100f0565b82525050565b6000610091600a836100d5565b915061009c82610102565b602082019050919050565b600060408201905081810360008301526100c081610084565b90506100cf6020830184610075565b92915050565b600082825260208201905092915050565b6000819050919050565b60006100fb826100e6565b9050919050565b7f4c65656a6165686f6f6e0000000000000000000000000000000000000000000060008201525056fea26469706673582212205fe20ef50f0c4c882ecb11708ce6e230793d325645dfc7e35b11d0e2de10fabd64736f6c63430008070033",
			"opcodes": "PUSH1 0x80 PUSH1 0x40 MSTORE CALLVALUE DUP1 ISZERO PUSH2 0x10 JUMPI PUSH1 0x0 DUP1 REVERT JUMPDEST POP PUSH2 0x161 DUP1 PUSH2 0x20 PUSH1 0x0 CODECOPY PUSH1 0x0 RETURN INVALID PUSH1 0x80 PUSH1 0x40 MSTORE CALLVALUE DUP1 ISZERO PUSH2 0x10 JUMPI PUSH1 0x0 DUP1 REVERT JUMPDEST POP PUSH1 0x4 CALLDATASIZE LT PUSH2 0x2B JUMPI PUSH1 0x0 CALLDATALOAD PUSH1 0xE0 SHR DUP1 PUSH4 0xCBEDBF5A EQ PUSH2 0x30 JUMPI JUMPDEST PUSH1 0x0 DUP1 REVERT JUMPDEST PUSH2 0x38 PUSH2 0x3A JUMP JUMPDEST STOP JUMPDEST PUSH32 0x473E81062E4FF21E1CD2C2CEAA6B79BD5885F00EB22D9A844CE9FD9685F22AC7 PUSH2 0x3E8 PUSH1 0x40 MLOAD PUSH2 0x6B SWAP2 SWAP1 PUSH2 0xA7 JUMP JUMPDEST PUSH1 0x40 MLOAD DUP1 SWAP2 SUB SWAP1 LOG1 JUMP JUMPDEST PUSH2 0x7E DUP2 PUSH2 0xF0 JUMP JUMPDEST DUP3 MSTORE POP POP JUMP JUMPDEST PUSH1 0x0 PUSH2 0x91 PUSH1 0xA DUP4 PUSH2 0xD5 JUMP JUMPDEST SWAP2 POP PUSH2 0x9C DUP3 PUSH2 0x102 JUMP JUMPDEST PUSH1 0x20 DUP3 ADD SWAP1 POP SWAP2 SWAP1 POP JUMP JUMPDEST PUSH1 0x0 PUSH1 0x40 DUP3 ADD SWAP1 POP DUP2 DUP2 SUB PUSH1 0x0 DUP4 ADD MSTORE PUSH2 0xC0 DUP2 PUSH2 0x84 JUMP JUMPDEST SWAP1 POP PUSH2 0xCF PUSH1 0x20 DUP4 ADD DUP5 PUSH2 0x75 JUMP JUMPDEST SWAP3 SWAP2 POP POP JUMP JUMPDEST PUSH1 0x0 DUP3 DUP3 MSTORE PUSH1 0x20 DUP3 ADD SWAP1 POP SWAP3 SWAP2 POP POP JUMP JUMPDEST PUSH1 0x0 DUP2 SWAP1 POP SWAP2 SWAP1 POP JUMP JUMPDEST PUSH1 0x0 PUSH2 0xFB DUP3 PUSH2 0xE6 JUMP JUMPDEST SWAP1 POP SWAP2 SWAP1 POP JUMP JUMPDEST PUSH32 0x4C65656A6165686F6F6E00000000000000000000000000000000000000000000 PUSH1 0x0 DUP3 ADD MSTORE POP JUMP INVALID LOG2 PUSH5 0x6970667358 0x22 SLT KECCAK256 0x5F 0xE2 0xE CREATE2 0xF 0xC 0x4C DUP9 0x2E 0xCB GT PUSH17 0x8CE6E230793D325645DFC7E35B11D0E2DE LT STATICCALL 0xBD PUSH5 0x736F6C6343 STOP ADDMOD SMOD STOP CALLER "
		},
		"gasEstimates": {
			"creation": {
				"codeDepositCost": "70600",
				"executionCost": "123",
				"totalCost": "70723"
			},
			"external": {
				"sendMoney()": "2326"
			}
		},
		"methodIdentifiers": {
			"sendMoney()": "cbedbf5a"
		}
	},
	"abi": [
		{
			"anonymous": false,
			"inputs": [
				{
					"indexed": false,
					"internalType": "string",
					"name": "anem",
					"type": "string"
				},
				{
					"indexed": false,
					"internalType": "uint256",
					"name": "money",
					"type": "uint256"
				}
			],
			"name": "info",
			"type": "event"
		},
		{
			"inputs": [],
			"name": "sendMoney",
			"outputs": [],
			"stateMutability": "nonpayable",
			"type": "function"
		}
	]
}