{
	"data": {
		"bytecode": {
			"linkReferences": {},
			"object": "608060405234801561001057600080fd5b5061011f806100206000396000f3fe6080604052348015600f57600080fd5b506004361060285760003560e01c8063d6d21dfd14602d575b600080fd5b60336035565b005b603b603d565b565b7f9084713d5e2561709d7197f0c1143d7e814a061dae5429ba219fd588fb389c386040516068906091565b60405180910390a1565b6000607d60068360af565b915060868260c0565b602082019050919050565b6000602082019050818103600083015260a8816072565b9050919050565b600082825260208201905092915050565b7f6c6565536f6c000000000000000000000000000000000000000000000000000060008201525056fea26469706673582212200c60c62a33d0ac24bc1c7bbed24c0343a5132fea06f34f957e9bade6c00fc65b64736f6c63430008070033",
			"opcodes": "PUSH1 0x80 PUSH1 0x40 MSTORE CALLVALUE DUP1 ISZERO PUSH2 0x10 JUMPI PUSH1 0x0 DUP1 REVERT JUMPDEST POP PUSH2 0x11F DUP1 PUSH2 0x20 PUSH1 0x0 CODECOPY PUSH1 0x0 RETURN INVALID PUSH1 0x80 PUSH1 0x40 MSTORE CALLVALUE DUP1 ISZERO PUSH1 0xF JUMPI PUSH1 0x0 DUP1 REVERT JUMPDEST POP PUSH1 0x4 CALLDATASIZE LT PUSH1 0x28 JUMPI PUSH1 0x0 CALLDATALOAD PUSH1 0xE0 SHR DUP1 PUSH4 0xD6D21DFD EQ PUSH1 0x2D JUMPI JUMPDEST PUSH1 0x0 DUP1 REVERT JUMPDEST PUSH1 0x33 PUSH1 0x35 JUMP JUMPDEST STOP JUMPDEST PUSH1 0x3B PUSH1 0x3D JUMP JUMPDEST JUMP JUMPDEST PUSH32 0x9084713D5E2561709D7197F0C1143D7E814A061DAE5429BA219FD588FB389C38 PUSH1 0x40 MLOAD PUSH1 0x68 SWAP1 PUSH1 0x91 JUMP JUMPDEST PUSH1 0x40 MLOAD DUP1 SWAP2 SUB SWAP1 LOG1 JUMP JUMPDEST PUSH1 0x0 PUSH1 0x7D PUSH1 0x6 DUP4 PUSH1 0xAF JUMP JUMPDEST SWAP2 POP PUSH1 0x86 DUP3 PUSH1 0xC0 JUMP JUMPDEST PUSH1 0x20 DUP3 ADD SWAP1 POP SWAP2 SWAP1 POP JUMP JUMPDEST PUSH1 0x0 PUSH1 0x20 DUP3 ADD SWAP1 POP DUP2 DUP2 SUB PUSH1 0x0 DUP4 ADD MSTORE PUSH1 0xA8 DUP2 PUSH1 0x72 JUMP JUMPDEST SWAP1 POP SWAP2 SWAP1 POP JUMP JUMPDEST PUSH1 0x0 DUP3 DUP3 MSTORE PUSH1 0x20 DUP3 ADD SWAP1 POP SWAP3 SWAP2 POP POP JUMP JUMPDEST PUSH32 0x6C6565536F6C0000000000000000000000000000000000000000000000000000 PUSH1 0x0 DUP3 ADD MSTORE POP JUMP INVALID LOG2 PUSH5 0x6970667358 0x22 SLT KECCAK256 0xC PUSH1 0xC6 0x2A CALLER 0xD0 0xAC 0x24 0xBC SHR PUSH28 0xBED24C0343A5132FEA06F34F957E9BADE6C00FC65B64736F6C634300 ADDMOD SMOD STOP CALLER "
		},
		"gasEstimates": {
			"creation": {
				"codeDepositCost": "57400",
				"executionCost": "105",
				"totalCost": "57505"
			},
			"external": {
				"who()": "1948"
			}
		},
		"methodIdentifiers": {
			"who()": "d6d21dfd"
		}
	},
	"abi": [
		{
			"anonymous": false,
			"inputs": [
				{
					"indexed": false,
					"internalType": "string",
					"name": "name",
					"type": "string"
				}
			],
			"name": "FatherName",
			"type": "event"
		},
		{
			"anonymous": false,
			"inputs": [
				{
					"indexed": false,
					"internalType": "string",
					"name": "name",
					"type": "string"
				}
			],
			"name": "MotherName",
			"type": "event"
		},
		{
			"inputs": [],
			"name": "who",
			"outputs": [],
			"stateMutability": "nonpayable",
			"type": "function"
		}
	]
}